{
  "contractName": "solidity_SimpleStorage",
  "abi": [
    {
      "constant": true,
      "inputs": [],
      "name": "value",
      "outputs": [
        {
          "name": "",
          "type": "uint256"
        }
      ],
      "payable": false,
      "stateMutability": "view",
      "type": "function"
    },
    {
      "constant": false,
      "inputs": [
        {
          "name": "_value",
          "type": "uint256"
        }
      ],
      "name": "setValue",
      "outputs": [],
      "payable": false,
      "stateMutability": "nonpayable",
      "type": "function"
    }
  ],
  "bytecode": "0x608060405234801561001057600080fd5b5060dc8061001f6000396000f3006080604052600436106049576000357c0100000000000000000000000000000000000000000000000000000000900463ffffffff1680633fa4f24514604e57806355241077146076575b600080fd5b348015605957600080fd5b50606060a0565b6040518082815260200191505060405180910390f35b348015608157600080fd5b50609e6004803603810190808035906020019092919050505060a6565b005b60005481565b80600081905550505600a165627a7a723058205bf37c3f86574dfdf8ae8fd79facc14cc071ca2c43f3b7dfb1f80e315d9a03020029",
  "source": "pragma solidity ^0.4.18;\n\ncontract solidity_SimpleStorage {\n\n  uint public value;\n\n  function setValue(uint _value) external {\n    value = _value;\n  }\n}",
  "sourcePath": "/Users/primary/Projects/fluency-simple/contracts/SimpleStorage/solidity_SimpleStorage.sol",
  "compiler": {
    "name": "solc",
    "version": "0.4.24+commit.e67f0147.Emscripten.clang"
  },
  "schemaVersion": "2.0.0",
  "updatedAt": "2018-05-25T18:36:11.956Z"
}